:020000040800F2
:10000000784D00244D040008F7780008036E0008BE
:10001000257500084D0800082D9900080000000013
:100020000000000000000000000000008D03000838
:100030000511000800000000E9030008F18900082C
:100040006B0400086B0400086B0400086B040008D4
:100050006B0400086B0400086B0400086B040008C4
:100060006B0400086B0400086B0400086B040008B4
:100070006B040008110D00086B0400086B040008F5
:100080006B0400086B0400086B04000831110008C1
:100090005111000841110008611100086B040008AB
:1000A0006B040008ED8B00086B0400086B0400086B
:1000B0006B0400086B0400086B0400086B04000864
:1000C0006B0400086B0400086B0400086B04000854
:1000D0006B0400086B0400086B0400086B04000844
:1000E0006B0400086B040008000000006B040008AB
:1000F0006B0400086B0400086B0400086B04000824
:100100006B0400086B0400086B0400086B04000813
:100110006B040008F18E00086B0400086B040008F3
:100120006B0400086B0400086B0400086B040008F3
:100130006B0400086B0400086B0400086B040008E3
:1001400000000000000000000000000000000000AF
:100150006B0400086B0400086B0400086B040008C3
:100160006B0400086B0400086B0400086B040008B3
:100170006B0400086B0400086B040008000000001A
:100180006B0400086B0400086B0400086B04000893
:100190006B0400086B0400086B0400086B04000883
:1001A0006B0400086B0400086B04000800000000EA
:1001B0006B0400086B0400086B0400086B04000863
:1001C0006B0400086B040008000000000000000041
:1001D00000000000000000006B04000800000000A8
:1001E000000000000000000000000000000000000F
:1001F00000000000000000006B0400086B04000811
:100200006B0400086B040008000000006B04000889
:100210006B0400086B0400086B0400086B04000802
:100220006B040008000000006B04000800000000E0
:100230006B0400086B040008000000006B04000859
:100240006B0400086B0400086B0400086B040008D2
:100250006B0400086B0400086B0400086B040008C2
:100260006B0400086B0400086B0400086B040008B2
:100270006B0400086B0400086B0400080000000019
:100280006B0400086B0400086B0400086B04000892
:10029000000000006B0400086B0400080000000070
:1002A000000000006B0400086B0400086B040008E9
:1002B0006B0400086B0400086B0400086B04000862
:1002C0006B0400086B0400086B04000800F002F8DF
:1002D00000F04CF80AA090E8000C82448344AAF194
:1002E0000107DA4501D100F041F8AFF2090EBAE892
:1002F0000F0013F0010F18BFFB1A43F0010318475A
:10030000ACB00000CCB000000A4410F8014B14F06F
:100310000F0508BF10F8015B240908BF10F8014B56
:100320006D1E05D010F8013B6D1E01F8013BF9D19F
:10033000641E03D0641E01F8015BFBD19142E4D33B
:10034000704700000023002400250026103A28BF33
:1003500078C1FBD8520728BF30C148BF0B60704737
:100360001FB50AF0A3FF1FBD10B510BD00F0AAF91C
:100370001146FFF7F5FF09F0F7FA00F0C8F903B4EA
:10038000FFF7F2FF03BC00F0CFF900002C4B196817
:100390000868B0E8F04F80F30988BFF36F8F4FF023
:1003A000000080F3118870470000000008480068D2
:1003B000006880F308884FF0000080F3148862B66C
:1003C00061B6BFF34F8FBFF36F8F00DF00BF00BF79
:1003D00008ED00E0DFF80C00016841F470010160F5
:1003E000704700BF88ED00E0EFF30980BFF36F8F27
:1003F000134B1A681EF0100F08BF20ED108A20E979
:10040000F04F106009B44FF0500080F31188BFF333
:100410004F8FBFF36F8F0AF05BF94FF0000080F34E
:10042000118809BC19680868B0E8F04F1EF0100F79
:1004300008BFB0EC108A80F30988BFF36F8F704754
:100440001C000024EFF30580704700000A48804735
:100450000A4880470A480047FEE7FEE7FEE7FEE756
:10046000FEE7FEE7FEE7FEE7FEE7FEE70548064992
:10047000064A074B704700000D110008E18A00088A
:10048000CD02000878470024784D002478490024E4
:100490007849002453EA020C00F069802DE9F04B02
:1004A0004FF00006002B1FBFB3FA83F503FA05F4E3
:1004B00024FA05F65E4012BF1643B2FA82F502FA3C
:1004C00005F4C5F120051EBF22FA05FC44EA0C0420
:1004D000203556EA044C4FEA144418BF641C4FF010
:1004E00000084FF00009904271EB030C39D300294A
:1004F00019BFB1FA81F701FA07F6B0FA80F700FAEE
:1005000007F6C7F120071EBF20FA07FC46EA0C06D3
:100510002037B6FBF4FCA7EB0507103F07F01F0BD5
:10052000CBF120060CFA0BFB2CFA06F644BFB346BF
:100530000026202FA4BF5E464FF0000B5BEA060C9E
:1005400008BF4FF0010B19EB0B09ABFB027C48EB2A
:100550000608C01B06FB02CC0BFB03CC71EB0C01A5
:10056000C1E70B46024641464846BDE8F08B13B54D
:100570004FF000004FF00001AFF30080BDE81C40D9
:100580007047032A40F2308010F0030C00F0158011
:1005900011F8013BBCF1020F624498BF11F801CB86
:1005A00000F8013B38BF11F8013BA2F1040298BFEB
:1005B00000F801CB38BF00F8013B11F0030300F055
:1005C0002580083AC0F0088051F8043B083A51F8F9
:1005D00004CBA0E80810F5E7121D5CBF51F8043BFE
:1005E00040F8043BAFF30080D20724BF11F8013B71
:1005F00011F801CB48BF11F8012B24BF00F8013BD3
:1006000000F801CB48BF00F8012B704710B5203A25
:10061000C0F00B80B1E81850203AA0E81850B1E8BB
:100620001850A0E81850BFF4F5AF5FEA027C24BF71
:10063000B1E81850A0E8185044BF18C918C0BDE868
:1006400010405FEA827C24BF51F8043B40F8043B31
:1006500008BF7047D20728BF31F8023B48BF11F8E6
:10066000012B28BF20F8023B48BF00F8012B704740
:100670004FF0000200B5134694469646203922BF3B
:10068000A0E80C50A0E80C50B1F12001BFF4F7AF86
:10069000090728BFA0E80C5048BF0CC05DF804EB68
:1006A000890028BF40F8042B08BF704748BF20F8D6
:1006B000022B11F0804F18BF00F8012B70477047D4
:1006C00070477047754600F02BF8AE460500694646
:1006D000534620F00700854618B020B5FFF7C6FE48
:1006E000BDE820404FF000064FF000074FF0000833
:1006F0004FF0000B21F00701AC46ACE8C009ACE8B4
:10070000C009ACE8C009ACE8C0098D46704710B517
:100710000446AFF300802046BDE81040FFF72FBE2F
:10072000004870471847002401491820ABBEFEE777
:10073000260002007047000010B52DED028BB0EED0
:10074000408AB0EE480A034806F0D6FFBDEC028BA3
:1007500010BD0000B443002410B52DED028BB0EEA7
:10076000408AB0EE480A034806F0C6FFBDEC028B93
:1007700010BD00004C44002410B52DED028BB0EEEE
:10078000408AB0EE480A034806F0B6FFBDEC028B83
:1007900010BD000000440024002109E090ED100A83
:1007A000DFED120A30EE600A80ED100A4A1C11B229
:1007B00090ED100ADFED0D0AB4EEE00AF1EE10FA4A
:1007C000ECDA09E090ED100ADFED080A30EE200ABD
:1007D00080ED100A4A1E11B290ED100AB5EEC00A63
:1007E000F1EE10FAEED3C185704700000000B4436B
:1007F00008B500201249C1F80200487002200870B4
:1008000010480068806840F040000E490968886020
:1008100014200C4A0090126802F12401094A0A4B84
:10082000D2F88000A3F1140200F02CFF0548006804
:10083000006840F0100003490968086008BD000026
:100840001C430024D40400248C43002400BFFEE792
:10085000F0B589B006460C4617460094002001907A
:1008600002900820039000200490059006900790C5
:1008700008903A466946304602F028FD05462DB9F3
:1008800007484068401C0649486007E00448C560C6
:10089000304603F075FB304603F058FB09B0F0BD5D
:1008A000F0460024F0B589B007461648874203D1C8
:1008B00000240125012608E01348874203D10024C3
:1008C0000225022601E009B0F0BD0194002002904B
:1008D00002200390049500200590069001A9384657
:1008E00002F073FD012003460222114600903846B3
:1008F00002F0BFFD01223146384602F030FD00BF54
:10090000E1E70000940300243404002470B5054698
:100910000B48854201D1012405E00A48854201D1F6
:10092000102400E070BD2846FFF7BCFF284603F006
:100930000DFB00222146284602F074FC00BFF1E7BF
:10094000940300243404002470B504460D46264662
:10095000B6F5A17F07D0A6F2072048B92946064878
:1009600000F088F805E02946044806F04DFA00E05A
:1009700000BF00BF70BD0000B44300240044002449
:1009800030B504460D46A4F2052020B92946034897
:1009900000F070F800E000BF00BF30BD4C44002400
:1009A0000146022901DB0020704700220148425421
:1009B0000120F9E72243002401460878032853D197
:1009C000488C41F62C2290420BDD888C40F2DC52A0
:1009D000904206DA888D401E00B288854FF0FF30C5
:1009E0007047488C40F2DC5290420ADA888C41F61B
:1009F0002C22904205DD888D401C00B288850120A4
:100A0000EEE7488C00EE900AF8EE600ADFED171A68
:100A100080EEA11ADFED160A21EE201A91F82800C7
:100A200000EE900AF8EE600A81EE200A05E0DFEDA4
:100A3000100A70EE600AB0EE600ADFED0D0AB4EE47
:100A4000E00AF1EE10FAF2DA05E0DFED090A70EEE5
:100A5000200AB0EE600AB5EEC00AF1EE10FAF4D347
:100A600081ED0F0A0020BBE70020B9E700F8FF4541
:100A70000000B44310B503460C461878032827D16C
:100A80005869401C586193F84800012801D1598CDD
:100A900099846078217840EA0121598493F84800CC
:100AA00020B9598C9984012083F84800E078A17816
:100AB00040EA012001B219836079217940EA0120DE
:100AC00001B25983188B18861846FFF775FF00E0AE
:100AD00010BD00BFFCE700002DE9F04704460D46BD
:100AE00016461F4806704FF4FF701D4948600027E6
:100AF0004FF000084FF000094FF0000A012D06D01A
:100B0000022D06D0032D06D0042D08D105E027467E
:100B100007E0A04605E0A14603E0A24601E0BDE8EB
:100B2000F08700BF380A0E490872084647724FEA3C
:100B30001821817280F80B804FEA1921017380F827
:100B40000D904FEA1A21817380F80FA00023032231
:100B500001460448006809F02FFF00BFDFE70000EE
:100B600090460024B800002410B52DED028B0446F9
:100B700094ED100AB4F92E0000EE900AF8EEE00AA7
:100B80009FED2B1A00EE810AB0EE408A94ED0F0A19
:100B9000B4F92C0000EE900AF8EEE00A9FED241A5A
:100BA00000EE810AF0EE408AF0EE680AB0EE480AE4
:100BB000E06806F00DFF84ED0D0A94ED0D0ADFEDFF
:100BC0001D0AB4EEE00AF1EE10FA02DD9FED190AFB
:100BD0000DE094ED0D0ADFED180AB4EEE00AF1EE37
:100BE00010FA02D29FED140A01E094ED0D0A84ED93
:100BF0000D0AB4F9301001EE101AB8EEC11AF0EE79
:100C0000410A94ED0D1AB0EE410A206906F0E0FEAB
:100C1000BDEEC00A10EE100A00B2A4F84600B4F906
:100C2000460001220321FFF757FFBDEC028B10BDE8
:100C30000000B4430000FA440000FAC410B52DEDE2
:100C4000028B044694ED100AB4F92E0000EE900ACF
:100C5000F8EEE00A9FED2B1A00EE810AB0EE408A12
:100C600094ED0F0AB4F92C0000EE900AF8EEE00AB9
:100C70009FED241A00EE810AF0EE408AF0EE680A39
:100C8000B0EE480AE06806F0A3FE84ED0D0A94ED8C
:100C90000D0ADFED1D0AB4EEE00AF1EE10FA02DDF6
:100CA0009FED190A0DE094ED0D0ADFED180AB4EE80
:100CB000E00AF1EE10FA02D29FED140A01E094ED81
:100CC0000D0A84ED0D0AB4F9301001EE101AB8EED9
:100CD000C11AF0EE410A94ED0D1AB0EE410A2069F6
:100CE00006F076FEBDEEC00A10EE100A00B2A4F8BF
:100CF0004600B4F9460002220121FFF7EDFEBDECEB
:100D0000028B10BD0000B4430000FA440000FAC496
:100D100010B5024801F080FA10BD000068050024FB
:100D20000146374A0868904249D0354A1832086867
:100D3000904244D0324A3032086890423FD0304A24
:100D40004832086890423AD02D4A60320868904292
:100D500035D02B4A78320868904230D0284A9032F9
:100D6000086890422BD0264AA8320868904226D0C4
:100D7000244A0868904222D0224A183208689042D9
:100D80001DD0204A30320868904218D01D4A48329F
:100D90000868904213D01B4A6032086890420ED017
:100DA000184A78320868904209D0164A903208688A
:100DB000904204D0134AA8320868904201D1012021
:100DC00000E00020B0B10A78103A1823B2FBF3F02B
:100DD00000F007020C4B9A5CCA65032805D90A6823
:100DE0006FF30902121D8A6503E00A686FF30902B6
:100DF0008A6503E0086820F0FF008865886D704709
:100E0000100002401004024030B3000810B5026820
:100E10002B4C0368A34222D0294C14340368A3420C
:100E20001DD0274C28340368A34218D0244C3C34EE
:100E30000368A34213D0224C50340368A3420ED05F
:100E40001F4C64340368A34209D01D4C78340368F6
:100E5000A34204D01A4C8C340368A34201D101236D
:100E600000E000238BB10378083B1424B3FBF4F1BA
:100E7000144B03EB81030366124B8033436601F08E
:100E80001F040123A340836618E00378103B182455
:100E9000B3FBF4F10C4B9A4204D80B4BA83B9A429B
:100EA00000D30831094B03EB81030366074B803302
:100EB000436601F01F040123A340836610BD0000B8
:100EC0000854025800580258B80402400008024072
:100ED0000179A9B3082940D8204B02689A4222D050
:100EE0001E4B143302689A421DD01C4B28330268F3
:100EF0009A4218D0194B3C3302689A4213D0174BD0
:100F0000503302689A420ED0144B643302689A42FE
:100F100009D0124B783302689A4204D00F4B8C33BD
:100F200002689A4201D1012200E000224AB14A1E21
:100F30000B4B03EB8202C266094A4032026708E0AB
:100F40000BE04A1E074B03EB8202C266054A4032A1
:100F500002674A1E012393404367704708540258B2
:100F60000059025800090240014600208A69D2B99E
:100F70008A6A32B1012A0DD0022A03D0032A10D185
:100F80000EE000BFCA6A02F08072B2F1807F00D129
:100F9000012007E0CA6AB2F1C07F00D1012001E060
:100FA00000E000BF36E08A69B2F5005F1BD18A6AB3
:100FB00032B1012A07D0022A03D0032A11D10AE054
:100FC00000BF01200EE0CA6A02F08072B2F1807F99
:100FD00000D1012006E0CA6AB2F1C07F00D1012031
:100FE00000E000BF16E08A6A32B1012A05D0022A69
:100FF00004D0032A0CD103E000BF00BF012008E0A9
:10100000CA6A02F08072B2F1807F00D1012000E054
:1010100000BF00BF7047000030B5384D0468AC42D7
:1010200049D0364D18350468AC4244D0334D303584
:101030000468AC423FD0314D48350468AC423AD0E8
:101040002E4D60350468AC4235D02C4D783504689F
:10105000AC4230D0294D90350468AC422BD0274D9E
:10106000A8350468AC4226D0254D0468AC4222D095
:10107000234D18350468AC421DD0214D303504682D
:10108000AC4218D01E4D48350468AC4213D01C4DFC
:1010900060350468AC420ED0194D78350468AC4216
:1010A00009D0174D90350468AC4204D0144DA835D2
:1010B0000468AC4201D1012400E0002474B104684A
:1010C00063608468402C04D10468A2600468E16015
:1010D00012E00468A1600468E2600DE004686360E7
:1010E0008468402C04D10468A2600468E16003E0D5
:1010F0000468A1600468E26030BD00001000024096
:1011000010040240704772B600BFFEE7074800684F
:1011100040F002000549086000BF04480838006834
:1011200000F400500028F8D0704700000C48025826
:1011300010B5024802F0B6FA10BD00009403002476
:1011400010B5024802F0AEFA10BD0000940300246E
:1011500010B5024802F0A6FA10BD000034040024C5
:1011600010B5024802F09EFA10BD000034040024BD
:1011700010B501464A6B0868D0F884004FF6FC743D
:10118000A04340EA82000C68C4F884000868D0F8E4
:10119000840020F47F04088F44EA00400C68C4F8FF
:1011A0008400886B02440868D0F888004FF6FC740D
:1011B000A04340EA82000C68C4F888000868D0F8B0
:1011C000880020F4FE04888F44EA00400C68C4F8CC
:1011D0008800C86B02EB40020868D0F8A0004FF608
:1011E000FC74A04340EA82000C68C4F8A0000868C0
:1011F000D0F8A00020F4FE044020405A44EA004009
:101200000C68C4F8A000D1E9104004FB0022086873
:10121000D0F8B0004FF6FC74A04340EA82000C689E
:10122000C4F8B0000868D0F8B00020F4FE04B1F8AB
:10123000480044EA00400C68C4F8B000D1E912400C
:1012400004FB00220868D0F8AC004FF6FC74A04301
:1012500040EA82000C68C4F8AC00D1E9144004FBF9
:1012600000220868D0F8F0004FF6FC74A04340EA72
:1012700082000C68C4F8F0000868D0F8F00020F490
:101280007C14B1F8580044EA00400C68C4F8F0003F
:10129000886D02EB40020868D0F8C0004FF6FC747D
:1012A000A04340EA82000C68C4F8C0000868D0F887
:1012B000C00020F47C14B1F85C0044EA00400C68E3
:1012C000C4F8C0000868D0F8C00020F07C5491F841
:1012D000600044EA00600C68C4F8C0002A4C486B07
:1012E00004EB8000C866CC6E886B04EB80040C674E
:1012F0000C6FC86B04EBC0044C67D1E91004604369
:101300004C6F04EB80048C67D1E9120460438C6F4E
:1013100004EB8004CC67D1E914046043CC6F04EB88
:101320008004802044504458886D04EBC00484201D
:1013300044508C6EC86D60438424645804EB800470
:10134000882044508C6E086E60438824645804EBF7
:1013500080049020445040580C4CA04209D9983148
:10136000486840F020004860032001F898090120F7
:1013700010BDCB6E02E0002018601B1D902040586D
:101380009842F8D80020F3E700AC0040FCD30040BE
:101390002DE9F041054614461E46D1F804C0BCF1C3
:1013A000000F0AD1D1F810C0D1F808804CEA080C1F
:1013B000B1F800804CEA88430BE0D1F810C04CF043
:1013C000804CD1F808804CEA080CD1F800804CEA37
:1013D000080391F82080D1F81CC04CEA086CD1F8C1
:1013E00018804CEA080CD1F814804CEA080CB1F8CB
:1013F0000C804CEA0847D5F868C00CFB06FCD5F811
:10140000848008EB8C021360121D1760121D0020EF
:1014100019E000F1030C14F80CC04FEA0C6800F15D
:10142000020C14F80CC048EA0C4800F1010C14F846
:101430000CC048EA0C2C14F800804CEA080CC2F8E6
:1014400000C0121D001DDFF81480D1F80CC018F880
:101450000CC08445DDD8BDE8F0810000D4B200089E
:1014600001480078704700001C43002400B5014685
:10147000052970D2DFE801F0032E5985B000FFF78F
:10148000EFFF00EB400303EBC0036A4800EB4300AF
:101490004088A0F58062002A01DB104600E050423F
:1014A0000A2802DA9FED640A00BDFFF7D9FF00EBBE
:1014B000400202EBC0025F4800EB42004088A0F50A
:1014C000806000EE100AF8EEC00A9FED5C1A80EE14
:1014D000810AE9E7FFF7C4FF00EB400303EBC00319
:1014E000544800EB43008088A0F58062002A01DBAD
:1014F000104600E050420A2802DA9FED4F0AD3E777
:10150000FFF7AEFF00EB400202EBC002494800EBE0
:1015100042008088A0F5806000EE100AF8EEC00A54
:101520009FED461A80EE810ABEE7FFF799FF00EBB8
:10153000400303EBC0033F4800EB4300C088A0F525
:101540008062002A01DB104600E050420A2803DADC
:101550009FED390AA8E76AE0FFF782FF00EB40023F
:1015600002EBC002334800EB4200C088A0F5806067
:1015700000EE100AF8EEC00A9FED301A80EE810AE4
:1015800092E7FFF76DFF00EB400303EBC003294830
:1015900000EB43000089A0F58062002A01DB1046C1
:1015A00000E050420A2802DA9FED230A7CE7FFF7A9
:1015B00057FF00EB400202EBC0021E4800EB420066
:1015C0000089A0F5806000EE100AF8EEC00A9FEDD9
:1015D0001B1A80EE810A67E7FFF742FF00EB40032A
:1015E00003EBC003134800EB43004089A0F5806281
:1015F000002A01DB104600E050420A2802DA9FED83
:101600000E0A51E7FFF72CFF00EB400202EBC0028D
:10161000084800EB42004089A0F5806000EE100A07
:10162000F8EEC00A9FED051A80EE810A3CE79FEDB7
:10163000040A39E74C430024000000000000254460
:1016400000008044014611B1012917D10AE00C487D
:10165000007800EB400202EBC0020948303010F87D
:10166000120070470648007800EB400202EBC0020F
:101670000348303000EB42004078F2E70320F0E707
:101680001C4300242DE9F04704460F4690461E46B1
:10169000DDF820904FF0000AA068802804D14000B7
:1016A00060654FF0010A75E100BF94F8340001282D
:1016B00002D10220BDE8F087012084F8340000BF89
:1016C00094F8350001287DD1022084F835000020EF
:1016D0006065B1492068884249D0AF491831206817
:1016E000884244D0AC493031206888423FD0AA4972
:1016F0004831206888423AD0A74960312068884242
:1017000035D0A54978312068884230D0A24990313F
:10171000206888422BD0A049A8312068884226D072
:101720009E492068884222D09C491831206888420E
:101730001DD09A4930312068884218D097494831E5
:101740002068884213D095496031206888420ED0C5
:10175000924978312068884209D0904990312068B8
:10176000884204D08D49A8312068884201D10120E7
:1017700000E0002090B12068006840F480202168DB
:10178000086020680661A06D00F1080594F85C000F
:1017900000F01F013F208840286011E020680068A9
:1017A00048F2200108432168086020680661A06DA6
:1017B000051D94F85C0000F01F010120884028609E
:1017C000754900E0E1E02068884270D07249183124
:1017D000206888426BD0704930312068884266D0DA
:1017E0006D4948312068884261D06B49603120687A
:1017F00088425CD0684978312068884257D0664971
:1018000090312068884252D06349A83120688842CC
:101810004DD062492068884249D06049183120681B
:10182000884244D05D493031206888423FD05B49CE
:101830004831206888423AD058496031206888424F
:1018400035D0564978312068884230D0534990319C
:10185000206888422BD05149A8312068884226D080
:101860004F492068884222D04D491431206888426F
:101870001DD04B4928312068884218D048493C3156
:101880002068884213D046495031206888420ED0E3
:10189000434964312068884209D041497831206841
:1018A000884204D03E498C312068884201D1012011
:1018B00000E0002068B14B46424639462046FFF71B
:1018C000ABFBD4E919104860E06E10B1D4E91C10EC
:1018D000486031492068884249D02F491831206832
:1018E000884244D02C493031206888423FD02A4970
:1018F0004831206888423AD02749603120688842C0
:1019000035D0254978312068884230D0224990313D
:10191000206888422BD02049A8312068884226D0F0
:101920001E492068884222D01C491831206888420C
:101930001DD01A4930312068884218D017494831E3
:101940002068884213D015496031206888420ED043
:10195000124978312068884209D0104990312068B6
:10196000884204D00D49A8312068884206D12068F9
:10197000006840F00100216808600BE02068006802
:1019800040F001002168086004E04FF400606065E9
:101990004FF0010A50468DE610000240100402404C
:1019A000085402582DE9F041044602F03DFC8046FF
:1019B00014B90120BDE8F08194F83500022808D060
:1019C0008020606500BF002084F8340000BF012043
:1019D000F0E7FE492068884249D0FC491831206868
:1019E000884244D0F9493031206888423FD0F749D5
:1019F0004831206888423AD0F449603120688842F2
:101A000035D0F24978312068884230D0EF499031A2
:101A1000206888422BD0ED49A8312068884226D022
:101A2000EB492068884222D0E94918312068884271
:101A30001DD0E74930312068884218D0E449483148
:101A40002068884213D0E2496031206888420ED075
:101A5000DF4978312068884209D0DD49903120681B
:101A6000884204D0DA49A8312068884201D1012097
:101A700000E0002068B12068006820F01E002168A6
:101A800008602068406920F080002168486125686E
:101A900006E02068006820F00E00216808602568D4
:101AA000CA492068884270D0C849183120688842E5
:101AB0006BD0C64930312068884266D0C34948316E
:101AC0002068884261D0C1496031206888425CD07A
:101AD000BE4978312068884257D0BC49903120688F
:101AE000884252D0B949A831206888424DD0B849BF
:101AF0002068884249D0B64918312068884244D0CD
:101B0000B3493031206888423FD0B149483120681C
:101B100088423AD0AE4960312068884235D0AC491D
:101B200078312068884230D0A949903120688842B5
:101B30002BD0A749A8312068884226D0A549206823
:101B4000884222D0A3491431206888421DD0A1497F
:101B500028312068884218D09E493C31206888424C
:101B600013D09C495031206888420ED09949643185
:101B70002068884209D0974978312068884204D08B
:101B800094498C312068884201D1012000E0002076
:101B900028B1206E006820F48070216E08608B49A7
:101BA0002068884249D0894918312068884244D049
:101BB00086493031206888423FD0844948312068C6
:101BC00088423AD0814960312068884235D07F49C7
:101BD00078312068884230D07C4990312068884232
:101BE0002BD07A49A8312068884226D078492068CD
:101BF000884222D076491831206888421DD0744925
:101C000030312068884218D07149483120688842B4
:101C100013D06F496031206888420ED06C4978310A
:101C20002068884209D06A4990312068884204D0EF
:101C30006749A8312068884206D12068006820F0F2
:101C400001002168086005E02068006820F00100BC
:101C50002168086011E002F0E7FAA0EB080005280F
:101C60000BD920206065032084F8350000BF0020D8
:101C700084F8340000BF01209CE6286800F00100D1
:101C80000028E8D151492068884249D04F4918318D
:101C90002068884244D04D493031206888423FD086
:101CA0004A494831206888423AD048496031206822
:101CB000884235D0454978312068884230D0434940
:101CC0009031206888422BD04049A8312068884252
:101CD00026D03F492068884222D03D4918312068EB
:101CE00088421DD03A4930312068884218D038499E
:101CF00048312068884213D03549603120688842D5
:101D00000ED0334978312068884209D0304990316B
:101D10002068884204D02E49A8312068884201D129
:101D2000012000E0002040B1A66D94F85C0000F0B6
:101D30001F013F208840B06007E0A76D94F85C0069
:101D400000F01F0101208840786020492068884207
:101D500076D01E4918312068884271D01B49303135
:101D6000206888426CD0194948312068884267D081
:101D7000164960312068884262D014497831206861
:101D800088425DD0114990312068884258D00F496F
:101D9000A8312068884253D00D49206888424FD02E
:101DA0000B491831206888424AD0094930312068EF
:101DB000884245D0064948312068884240D00449CD
:101DC0006031206888423BD0014905E010000240A4
:101DD00010040240085402587831206888422FD0FD
:101DE0002549206888422BD0234918312068884231
:101DF00026D022492068884222D020491431206808
:101E000088421DD01D4928312068884218D01B49BE
:101E10003C312068884213D01849503120688842EC
:101E20000ED0164964312068884209D013497831B0
:101E30002068884204D011498C312068884201D141
:101E4000012000E0002068B1D4E919104860E06E7C
:101E500040B1E06E006820F48070E16E0860D4E963
:101E60001C104860012084F8350000BF002084F871
:101E7000340000BF00BF9DE5A00402400854025892
:101E800070B504460CB9012070BD94F835000228E5
:101E900003D0802060650120F6E7DC492068884295
:101EA00049D0DA4918312068884244D0D7493031C6
:101EB000206888423FD0D5494831206888423AD0CE
:101EC000D24960312068884235D0D04978312068C5
:101ED000884230D0CD499031206888422BD0CB4900
:101EE000A8312068884226D0C9492068884222D07B
:101EF000C7491831206888421DD0C5493031206853
:101F0000884218D0C24948312068884213D0C0495D
:101F10006031206888420ED0BD49783120688842FF
:101F200009D0BB4990312068884204D0B849A83113
:101F30002068884201D1012000E00020F0B3042095
:101F400084F83500B149206888424BD0AF49183138
:101F50002068884246D0AD4930312068884241D05F
:101F6000AA494831206888423CD0A849603120689D
:101F7000884237D0A54978312068884232D0A349B9
:101F80009031206888422DD0A049A831206888422D
:101F900028D09F492068884224D09D491831206864
:101FA00088421FD09A493031206888421AD0984917
:101FB00048312068884215D0954900E020E0603122
:101FC000206888420ED0924978312068884209D032
:101FD0008F4990312068884204D08D49A83120680B
:101FE000884206D12068006820F00100216808605E
:101FF00009E12068006820F001002168086002E122
:102000002068006820F00E00216808607F49206881
:10201000884249D07D4918312068884244D07B49A4
:102020003031206888423FD0784948312068884262
:102030003AD0764960312068884235D0734978318A
:102040002068884230D071499031206888422BD076
:102050006E49A8312068884226D06D4920688842A0
:1020600022D06B491831206888421DD06849303130
:102070002068884218D0664948312068884213D0C9
:1020800063496031206888420ED061497831206808
:10209000884209D05E4990312068884204D05C496A
:1020A000A8312068884206D12068006820F001002D
:1020B0002168086005E02068006820F001002168C0
:1020C000086052492068884270D050491831206811
:1020D00088426BD04D4930312068884266D04B49E8
:1020E00048312068884261D0484960312068884280
:1020F0005CD0464978312068884257D043499031B6
:102100002068884252D04149A831206888424DD089
:102110003F492068884249D03D49183120688842AB
:1021200044D03B493031206888423FD0384948315B
:10213000206888423AD0364960312068884235D0DC
:10214000334978312068884230D031499031206855
:1021500088422BD02E49A8312068884226D02D49AC
:102160002068884222D02B491431206888421DD033
:10217000284928312068884218D026493C312068F7
:10218000884213D023495031206888420ED021491B
:1021900064312068884209D01E497831206888421D
:1021A00004D01C498C312068884201D1012000E014
:1021B0000020D8B1206E006820F48070216E086085
:1021C000A56D94F85C0000F01F0101208840686054
:1021D000D4E919104860E06E40B1E06E006820F468
:1021E0008070E16E0860D4E91C104860012084F81A
:1021F000350000BF002084F8340000BF206D10B10E
:102200002046216D884700203EE600001000024075
:1022100010040240085402582DE9F84F04460020EB
:102220000090FE4800684FF41651B0FBF1FAA66D1D
:10223000D4F858803768D8F80090F9492068884267
:1022400049D0F74918312068884244D0F4493031E8
:10225000206888423FD0F2494831206888423AD00D
:10226000EF4960312068884235D0ED4978312068E7
:10227000884230D0EA499031206888422BD0E84922
:10228000A8312068884226D0E6492068884222D0BA
:10229000E4491831206888421DD0E2493031206875
:1022A000884218D0DF4948312068884213D0DD4980
:1022B0006031206888420ED0DA497831206888423F
:1022C00009D0D84990312068884204D0D549A83136
:1022D0002068884201D1012000E0002000287DD044
:1022E00094F85C0000F01F01082088403840002866
:1022F00068D0CB492068884249D0C9491831206844
:10230000884244D0C6493031206888423FD0C44911
:102310004831206888423AD0C149603120688842FB
:1023200035D0BF4978312068884230D0BC499031DF
:10233000206888422BD0BA49A8312068884226D02C
:10234000B8492068884222D0B649183120688842AE
:102350001DD0B44930312068884218D0B149483185
:102360002068884213D0AF496031206888420ED07F
:10237000AC4978312068884209D0AA499031206858
:10238000884204D0A749A8312068884204D1206837
:10239000006800F0040003E02068006800F0080016
:1023A00080B12068006820F004002168086094F87B
:1023B0005C0000F01F0108208840B060606D40F0B4
:1023C0000100606594F85C0000F01F010120884066
:1023D0003840E8B392492068884200E0B7E24BD029
:1023E0008F4918312068884246D08D4930312068A5
:1023F000884241D08A494831206888423CD0884987
:1024000060312068884237D0854978312068884219
:1024100032D083499031206888422DD08049A8313C
:102420002068884228D07F492068884224D07D498E
:102430001831206888421FD07A493031206888429C
:102440001AD0784948312068884215D0754900E093
:1024500026E06031206888420ED0724978312068C9
:10246000884209D06F4990312068884204D06D4974
:10247000A8312068884204D12068406900F08000BB
:1024800002E020680068002050B194F85C0000F081
:102490001F0101208840B060606D40F0020060655F
:1024A00094F85C0000F01F01042088403840E8B335
:1024B0005B49206888424BD05949183120688842CE
:1024C00046D0574930312068884241D0544948317C
:1024D000206888423CD0524960312068884237D019
:1024E0004F4978312068884232D04D499031206878
:1024F00088422DD04A49A8312068884228D04949CD
:102500002068884224D047491831206888421FD06B
:1025100044493031206888421AD042494831206805
:10252000884215D03F496031206800E024E08842AD
:102530000ED03C4978312068884209D03949903121
:102540002068884204D03749A8312068884204D1E5
:102550002068006800F0020002E0206800680020A7
:1025600050B194F85C0000F01F0104208840B06076
:10257000606D40F00400606594F85C0000F01F019D
:10258000102088403840E8B325492068884251D05F
:1025900023491831206888424CD0214930312068C5
:1025A000884247D01E4948312068884242D01C49A1
:1025B0006031206888423DD01949783120688842CE
:1025C00038D0174990312068884233D01449A83157
:1025D000206888422ED01349206888422AD01149A9
:1025E00018312068884225D00E4930312068884251
:1025F00020D00C494831206888421BD009496031FD
:10260000206800E04DE0884214D006497831206807
:1026100088420FD003499031206805E0140000245F
:102620001000024010040240884203D0FE49206896
:10263000884204D12068006800F0080003E02068A8
:10264000006800F0040060B394F85C0000F01F0123
:1026500010208840B0602068006800F4802080B1BD
:102660002068006800F4002028B9206CC8B120461A
:10267000216C884715E0A06C98B12046A16C884772
:102680000FE02068006800F4807028B920680068B6
:1026900020F0080021680860206C10B12046216CF1
:1026A000884794F85C0000F01F01202088403840E3
:1026B00000287DD0DD492068884249D0DB491831A7
:1026C0002068884244D0D9493031206888423FD0C0
:1026D000D6494831206888423AD0D44960312068D0
:1026E000884235D0D14978312068884230D0CF49EE
:1026F0009031206888422BD0CC49A831206888428C
:1027000026D0C949A8392068884221D0C6499039C5
:10271000206888421CD0C44978392068884217D084
:10272000C14960392068884212D0BF4948392068C1
:1027300088420DD0BC4930392068884208D0BA4957
:1027400018392068884203D0B7492068884204D1EC
:102750002068006800F0100003E02068006800F0C6
:10276000020028B394F85C0000F01F01202088408C
:10277000B06094F8350004282DD12068006820F05E
:102780001600216808602068406920F080002168F8
:102790004861206C08B9A06C28B12068006820F05E
:1027A00008002168086094F85C0000F01F0100E058
:1027B0003FE03F208840B060012084F8350000BF32
:1027C000002084F8340000BF206D10B12046216D38
:1027D0008847BDE8F88F2068006800F4802080B149
:1027E0002068006800F4002028B9606C08B3204617
:1027F000616C88471DE0E06BD8B12046E16B8847EB
:1028000017E02068006800F4807068B920680068EC
:1028100020F0100021680860012084F8350000BF16
:10282000002084F8340000BFE06B10B12046E16B5B
:102830008847606D00287AD0606D00F00100E8B331
:10284000042084F835007949206888424BD07749C4
:1028500018312068884246D0744930312068884257
:1028600041D072494831206888423CD06F4960317C
:102870002068884237D06D4978312068884232D04C
:102880006A499031206888422DD06849A831206873
:10289000884228D06449A8392068884223D06249F8
:1028A0009039206888421ED05F4978392068884274
:1028B00019D05D4960392068884200E040E012D0BC
:1028C00059494839206888420DD057493039206825
:1028D000884208D0544918392068884203D05249A8
:1028E0002068884206D12068006820F00100216835
:1028F000086005E02068006820F001002168086099
:1029000000BF0098401C0090504500D905E02068A9
:10291000006800F001000028F3D100BF20680068C3
:1029200000F0010020B1032084F8350003E00DE041
:10293000012084F8350000BF002084F8340000BF77
:10294000E06C002802D02046E16C8847D9E1384984
:102950002068884222D036491431206888421DD030
:10296000334928312068884218D031493C312068E9
:10297000884213D02E495031206888420ED02C490D
:1029800064312068884209D029497831206888421A
:1029900004D027498C312068884201D1012000E011
:1029A00000200028D2D02068056894F85C0000F070
:1029B0001F010420884000EA0900D8B305F0040094
:1029C000C0B394F85C0000F01F0104208840C8F8F0
:1029D000040005F4004080B105F4803030B9A06CEB
:1029E0000028B3D02046A16C88478AE1206C0028DB
:1029F000ACD02046216C884783E105F02000E8BB7D
:102A00000A492068884253D0084918312068884212
:102A10004ED0064930312068884249D003494831B8
:102A20002068884244D006E0B8040240100002400A
:102A3000085402584FE0B44960312068884237D0CA
:102A4000B14978312068884232D0AF49903120684E
:102A500088422DD0AC49A8312068884228D0AB49A3
:102A60002068884224D0A9491831206888421FD0A4
:102A7000A6493031206888421AD000E025E0A349F9
:102A800048312068884213D0A049603120688842CC
:102A90000ED09E4978312068884209D09B499031F8
:102AA0002068884204D09949A8312068884206D11C
:102AB0002068006820F008002168086005E02068B0
:102AC000006820F0040021680860206C10B32046E4
:102AD000216C884715E194F85C0000F01F0102208A
:102AE000884000EA0900E8B305F00200D0B394F88A
:102AF0005C0000F01F0102208840C8F8040005F4C3
:102B0000004070B105F4803028B9606C10B12046E7
:102B1000616C8847F5E0E06BF0B32046E16B8847D5
:102B2000EFE005F02000C0BB7749206888424ED016
:102B3000754918312068884249D07349303120687E
:102B4000884244D070494831206888423FD06E495D
:102B50006031206888423AD06B49783120688842D9
:102B600035D000E04EE068499031206888422ED090
:102B70006549A8312068884229D064492068884284
:102B800025D0624918312068884220D05F49303111
:102B9000206888421BD001E06EE02DE05B4948319F
:102BA0002068884213D059496031206888420ED08D
:102BB000564978312068884209D0544990312068BC
:102BC000884204D05149A8312068884206D1206843
:102BD000006820F014002168086005E020680068A3
:102BE00020F00A0021680860012084F8350000BF49
:102BF000002084F8340000BFE06BE8B32046E16BAE
:102C000088477EE094F85C0000F01F0108208840AF
:102C100000EA090080B305F0080068B33A4920686B
:102C200088424BD0384918312068884246D036490E
:102C300030312068884241D0334948312068884289
:102C40003CD0314960312068884237D02E497831F4
:102C50002068884232D02C499031206888422DD09B
:102C60002949A8312068884228D02849206888420C
:102C700024D02649183100E043E0206888421DD066
:102C8000224930312068884218D0204948312068D4
:102C9000884213D01D496031206888420ED01B49FC
:102CA00078312068884209D01849903120688842DC
:102CB00004D01649A8312068884206D120680068EF
:102CC00020F01C002168086005E02068006820F002
:102CD0000E002168086094F85C0000F01F010120DC
:102CE0008840C8F804000120606584F8350000BF02
:102CF000002084F8340000BFE06C10B12046E16C85
:102D0000884700BF65E50000100002401004024043
:102D10002DE9F041044601F087FA804614B90120FC
:102D2000BDE8F081FE492068884249D0FC4918314D
:102D30002068884244D0FA493031206888423FD028
:102D4000F7494831206888423AD0F5496031206817
:102D5000884235D0F24978312068884230D0F04935
:102D60009031206888422BD0ED49A83120688842F4
:102D700026D0EC492068884222D0EA4918312068E0
:102D800088421DD0E74930312068884218D0E54993
:102D900048312068884213D0E24960312068884277
:102DA0000ED0E04978312068884209D0DD49903161
:102DB0002068884204D0DB49A8312068884201D1CC
:102DC000012000E00020002873D0606A00B100BF3D
:102DD000022084F8350000BF002084F8340000BFD2
:102DE000CF492068884249D0CD49183120688842AF
:102DF00044D0CB493031206888423FD0C84948315F
:102E0000206888423AD0C64960312068884235D06F
:102E1000C34978312068884230D0C1499031206858
:102E200088422BD0BE49A8312068884226D0BD49AF
:102E30002068884222D0BB491831206888421DD0C2
:102E4000B84930312068884218D0B64948312068E6
:102E5000884213D0B3496031206888420ED0B1490E
:102E600078312068884209D0AE4990312068884284
:102E700004D0AC49A8312068884206D12068006897
:102E800020F001002168086005E02068006820F05B
:102E90000100216808600DE001F0C6F9A0EB080010
:102EA000052807D920206065032084F8350001201B
:102EB00036E769E02068006800F001000028EBD1E7
:102EC0002068056898480540D4E902010843216953
:102ED000084361690843A1690843E1690843216A1D
:102EE00008430543606A042803D1D4E90B01084371
:102EF00005436068292802D360682E2817D96068C6
:102F00003F2802D36068422811D96068472802D35D
:102F1000606848280BD960684F2802D3606852283F
:102F200005D96068742804D36068772801D8012027
:102F300000E0002008B145F4801520680560206895
:102F4000456925F00705606A0543606A04280DD1CC
:102F5000A06A0543E06A48B12046FEF705F828B1AB
:102F600040206065012084F83500D9E6206845617D
:102F70002046FDF7D5FE064694F85C0000F01F01E0
:102F80003F208840B0609EE068492068884222D097
:102F900066491431206888421DD064492831206870
:102FA000884218D061493C312068884213D05F497B
:102FB0005031206888420ED05C49643120688842D4
:102FC00009D05A4978312068884204D057498C3159
:102FD0002068884201D1012000E00020E0B353497D
:102FE0002068884222D051491431206888421DD07F
:102FF0004E4928312068884218D04C493C3120681D
:10300000884213D049495031206888420ED0474940
:1030100064312068884209D0444978312068884268
:1030200004D042498C312068884201D1012000E05F
:10303000002000B100BF022084F8350000BF00204E
:1030400084F8340000BF2068056839480540A0684E
:10305000402802D1102106E02EE0A068802801D18E
:10306000C10100E00021E06841EAD001206941EAA5
:10307000D001606941EAD001A06941EAD001E0696C
:1030800041EAD001206A41EA10100543206805603A
:1030900026492068401A1421B0FBF1F08000E06559
:1030A0002046FDF73DFE074694F85C0000F01F0146
:1030B00001208840786006E040206065032084F8A5
:1030C000350001202CE61649206888427AD0144940
:1030D00018312068884275D0114930312068884203
:1030E00070D00F494831206888426BD00C4960315C
:1030F0002068884266D00A4978312068884261D0C9
:1031000007499031206888425CD00549A831206881
:10311000884257D003492068884253D0014909E0CA
:1031200010000240100402403F8010FE0854025874
:103130000F00FEFF18312068884243D037492068CD
:1031400088423FD035491831206888423AD0334907
:1031500030312068884235D0304948312068884273
:1031600030D02E496031206888422BD02B497831ED
:103170002068884226D02A492068884222D02849DF
:103180001431206888421DD02549283120688842A2
:1031900018D023493C312068884213D0204950314F
:1031A000206888420ED01E4964312068884209D0C8
:1031B0001B4978312068884204D019498C31206835
:1031C000884201D1012000E0002000B32046FDF735
:1031D0001DFEA068802801D1002060602079216E4A
:1031E0000860D4E919104860606860B16068082818
:1031F00009D82046FDF76CFE0020E16E0860D4E996
:103200001C10486003E00020E06620676067002033
:103210006065012084F83500002081E5400402400B
:103220000854025830B5034693F89840012C01D059
:10323000022C3ED11868806D084030B91868C06D06
:1032400040F001001D68E8650EE01868806D0840D8
:10325000884206D11868C06D40F002001D68E8651C
:1032600002E003201D68E86501F4007030B11868C1
:10327000D0F8E00010431D68C5F8E00001F480605C
:1032800030B11868D0F8E40010431D68C5F8E400B8
:1032900000BF1868406D0B4D0D4028431D686865E0
:1032A0000948006840EA9170074D286000BF00207F
:1032B00030BDD3F89C0040F00200C3F89C00012010
:1032C000F6E70000FFFFCF3F14A800402DE9F041D2
:1032D00004460E461746706800B900E000BF94F837
:1032E0009800022832D12068D0F8C00000F07C504D
:1032F00040B9D4F89C0040F02000C4F89C000120A4
:10330000BDE8F0812068D0F8C40000F4001038B1A6
:10331000D4F89C0040F40070C4F89C000120EFE752
:103320002068D0F8C400C0F304452B463A46314625
:103330002046FEF72DF80120A8402168C1F8D000F2
:103340000120A840C4F894000020D9E7D4F89C00DC
:1033500040F00800C4F89C000120D1E7704710B588
:10336000034601B900E000BF93F89800012824D17A
:1033700051B91868D0F8F00020F07C5040EA0260A3
:103380001C68C4F8F00016E001290AD11868D0F8CA
:10339000A00020F0FE4040EA02601C68C4F8A000D3
:1033A00009E01868D0F8B00020F0FE4040EA026062
:1033B0001C68C4F8B000002010BDD3F89C0040F099
:1033C0000400C3F89C000120F6E7F0B5024692F82D
:1033D0009860012E01D0022E43D1C868072800D181
:1033E00000BF086818BBC868072800D000BFC868BD
:1033F00007280BD1088A4FF0605747EA0040CF6991
:1034000040EA07208F6940EA07040AE0087A80074B
:103410000F7B40EAC7600F8A40EA07404F6940EAE5
:103420000704D76E486807EB80031C6017E0C86884
:10343000072800D000BF0F7B086940EA4774C868BE
:10344000072801D18D6903E00F7A486940EA877542
:10345000176F486807EBC0031C601B1D1D60002030
:10346000F0BDD2F89C0040F00200C2F89C000120A0
:10347000F6E770B50446049D94F8980001280AD137
:10348000080140EA820040EA430028432668C6F863
:103490008000002070BDD4F89C0040F00400C4F807
:1034A0009C000120F6E77047704700002DE9F043CB
:1034B00004460D469C46002394F89880B8F1020F0C
:1034C00074D1402D38D12068D0F8A00000F4FE005F
:1034D00040B9D4F89C0040F02000C4F89C000120C2
:1034E000BDE8F0832068D0F8A40000F07F0038B970
:1034F000D4F89C0040F48070C4F89C000120EFE7F1
:103500002068D0F8A400C0F3006040B12068D0F873
:10351000A0004FF00109B9EBD07F00D10123206852
:10352000D0F8A400C0F305200344606C5843D4F8DD
:10353000749009EB80014BE0412D38D12068D0F820
:10354000B00000F4FE0038B9D4F89C0040F0200030
:10355000C4F89C000120C3E72068D0F8B40000F054
:103560007F0038B9D4F89C0040F48070C4F89C0007
:103570000120B5E72068D0F8B400C0F3006040B186
:103580002068D0F8B0004FF00109B9EBD07F00D12E
:1035900001232068D0F8B400C0F305200344E06C98
:1035A0005843D4F8789009EB800111E06DE0206D6C
:1035B000A84207D8D4F89C0040F02000C4F89C0032
:1035C00001208DE7606D6843D4F87C9009EB8001A1
:1035D000086800F080405060506820B90868C0F367
:1035E0008A40106003E0086820F0604010600868BE
:1035F00000F000509060086800F000401061091D64
:10360000088880B2D0610868C0F30340D0600868C1
:1036100000F480105061086800F4001090610868A0
:10362000C0F3066010620868C00F5062091D0F46A3
:10363000002603E0B85D0CF80600761CDFF85C900D
:10364000D06819F80000B042F4D8402D03D12068AA
:10365000C0F8A83017E0412D03D12068C0F8B83079
:1036600011E0202D06D20120A840D4F80090C9F81E
:10367000980008E005F01F09012000FA09F0D4F8CD
:103680000090C9F89C0000202AE7D4F89C0040F084
:103690000800C4F89C00012022E70000D4B2000812
:1036A000704700002DE9F04F8DB00446EF480068E8
:1036B0008707EE48001D006807EA80772068006DE4
:1036C00000F470482068406D00EA08082068006D2A
:1036D00000F00F092068406D00EA09092068006DBC
:1036E00000F0F00A2068406D00EA0A0A2068006DC8
:1036F00000F0715B2068406D00EA0B0B2068006DE4
:1037000000F060700C902068406D0C9908400C909F
:103710002068456D2068066DC5F3002070B1C6F3C2
:10372000002058B100BF4FF4807021680865002068
:10373000CE49086000BF2046FFF7B2FFC5F38020E6
:10374000C8B1C6F38020B0B12068D0F8DC000A9080
:103750002068D0F8E4000A9908400A9000BF4FF4AE
:103760008060216808650020C049086000BF2046CD
:103770000A9900F05CFC67B100BFBD483840216881
:103780000865B80FB949086000BF39462046FFF701
:10379000E5FDB8F1000F0ED000BFB54808EA000003
:1037A000216808654FEA9870B049086000BF41463B
:1037B000204600F03EFCB9F1000F0ED000BFAC482F
:1037C00009EA0000216808654FEA9970A749086076
:1037D00000BF4946204600F085FBBAF1000F0ED02D
:1037E00000BFA3480AEA0000216808654FEA9A7002
:1037F0009E49086000BF5146204600F08FFBC5F38C
:10380000C02070B1C6F3C02058B100BF4FF40060B3
:103810002168086500209549086000BF204600F037
:1038200009FCC5F34020C8B1C6F34020B0B1206800
:10383000D0F8D8000B902068D0F8E0000B99084031
:103840000B9000BF4FF40070216808650020874985
:10385000086000BF20460B9900F0EAFBC5F3C040AA
:1038600070B1C6F3C04058B100BF4FF400202168CA
:10387000086500207D49086000BF204600F030FB4D
:10388000C5F3004070B1C6F3004058B100BF4FF41B
:1038900080302168086500207449086000BF204618
:1038A00000F0C4FBC5F3804070B1C6F3804058B14E
:1038B00000BF4FF480202168086500206B49086034
:1038C00000BF204600F0B1FBC5F3404088B1C6F30D
:1038D000404070B100BF4FF40030216808650020FF
:1038E0006249086000BFD4F89C0040F08000C4F832
:1038F0009C000C9870B100BF5D490C98084021688D
:1039000008650C98800F5949086000BF20460C9943
:10391000FFF7CAFDBBF1000F10D000BF54480BEAFF
:103920000000216808654FEA9B705049086000BF9D
:10393000D4F89C0040EA0B00C4F89C004D49206874
:1039400088427DD16068806800F00300002877D04D
:103950006068006A00F00F0009906068406A099989
:10396000084009906068006A00F0300008906068C4
:10397000406A0899084008906068006A00F4C070C6
:1039800007906068406A0799084007906068006A7D
:1039900000F4FC4006906068406A06990840069072
:1039A0006068006A00F4F02005906068406A05993C
:1039B000084005906068406A02906068006A019063
:1039C000099830B10998616808622046099900F0A9
:1039D00029FB089830B10898616808622046089968
:1039E00000F022FB0298C0F38010A0B10198C0F350
:1039F000801080B16068C06B000C04906068C06B80
:103A000000F03F0003904020616808622046DDE935
:103A1000032100F008FB079830B10798616808623D
:103A20002046079900F0FDFA069840B106986168B3
:103A30000862D4F89C0006990843C4F89C0000E092
:103A40000AE0059840B1059861680862D4F89C00C6
:103A500005990843C4F89C00D4F89C0010B1204696
:103A6000FFF721FD0DB0BDE8F08F000010A8004069
:103A7000FFFFCF3F00A0004070B594B004464C2239
:103A8000B34901A8FCF7C2FD14B9012014B070BD00
:103A9000B0492068884203D1206800F580706060DA
:103AA000A068B0F5407F00D100BF206C00B100BF1E
:103AB000A06C00B100BF206D00B100BF206E00B14E
:103AC00000BFD4E91710084400B100BF94F8980073
:103AD00028B9002084F89900204600F03DF92068BC
:103AE000806920F010002168886100F09DFB054688
:103AF0000EE000F099FB401B0A2809D99834606851
:103B000040F001006060032004F898090120BDE73F
:103B10002068806900F008000828EAD020688069E1
:103B200040F001002168886100F07EFB05460EE050
:103B300000F07AFB401B0A2809D99834606840F0ED
:103B400001006060032004F8980901209EE72068C6
:103B5000806900F001000028EAD02068806940F008
:103B6000020021688861207C012806D120688069D4
:103B700020F040002168886105E02068806940F0FD
:103B8000400021688861607C012806D12068806936
:103B900040F480402168886105E02068806920F455
:103BA000804021688861A07C012806D12068806956
:103BB00020F480502168886105E02068806940F425
:103BC0008050216888612068806920F44070A16875
:103BD0000843216888612068806920F0A40021687A
:103BE00088612068006920F0100021680861E068A1
:103BF000012806D12068806940F0040021688861AE
:103C000020E0E068F0B1E068022815D02068806903
:103C100040F08000216888612068006940F0100051
:103C200021680861E06803280CD12068806940F0B1
:103C300020002168886105E02068806940F020004C
:103C400021688861207E401E4106E069401E41EAED
:103C50000020216A491E0843A18A491E40EA01400A
:103C60002168C861A068B0F5407F0FD1A06A401EEE
:103C7000E16A491E40EA0121206B401E41EA001121
:103C8000A08C401E41EA00402168C860206E38B117
:103C90002068D0F8C000616E08432168C1F8C000F8
:103CA000D4E91710084460B12068D0F8C80020F0AB
:103CB000070001AAA16E52F8211008432168C1F83B
:103CC000C800206C60B12068D0F8BC0020F007006C
:103CD00001AA616C52F8211008432168C1F8BC00A8
:103CE000A06C68B12068D0F8BC0020F0700101AA77
:103CF000E06C52F8200041EA00102168C1F8BC00D5
:103D0000206D68B12068D0F8BC0020F4E06101AA01
:103D1000606D52F8200041EA00202168C1F8BC0023
:103D20000C492068884205D16068806820F0030053
:103D300061688860002044F8940FA0600120207121
:103D4000943C2046FDF714FA064630469EE60000F5
:103D5000E4B2000800A0004010B5B6B0044614213B
:103D600030A8FCF785FCB82102A8FCF781FC564975
:103D70002068884251D14FF400410020CDE9021063
:103D800048031D9002A800F0CBFD08B1FDF7BBF978
:103D90004E480068401C4D490860084600680128EC
:103DA0000DD100BF4A48006840F48070484908605F
:103DB0000846006800F48070019000BF00BF00BF9B
:103DC00043480C38006840F0080041490C3908604D
:103DD0000846006800F00800019000BF00BF032003
:103DE000309002203190002032903390092034909E
:103DF00030A9384800F020F900220521132000F0F6
:103E0000CBFA132000F0B4FA00220521152000F0AF
:103E1000C3FA152000F0ACFA54E02F49206888421C
:103E200050D14FF400410020CDE9021048031D900D
:103E300002A800F075FD08B1FDF765F92348006898
:103E4000401C224908600846006801280DD100BFC7
:103E50001F48006840F480701D49086008460068EB
:103E600000F48070019000BF00BF00BF18480C38FC
:103E7000006840F0020016490C39086008460068E6
:103E800000F00200019000BF00BF602030900220CF
:103E900031900020329033900920349030A90F489F
:103EA00000F0CAF800220521142000F075FA142051
:103EB00000F05EFA00220521162000F06DFA1620AF
:103EC00000F056FA36B010BD00A0004004000024F7
:103ED000EC440258000C025800A4004000040258B0
:103EE0007047000030B58DB004460D4601AB03AA03
:103EF00040212046FFF7DAFA0648844208D101A99A
:103F00000398FCF721FD04480068401C0249086042
:103F10000DB030BD940300248400002430B58DB072
:103F200004460D4601AB03AA41212046FFF7BEFA25
:103F300001A90398FCF724FD03480068401C0249CE
:103F400008600DB030BD000088000024014691F8E3
:103F5000980001280CD1022081F898000868806937
:103F600020F001000A6890610020C1F89C007047B1
:103F7000D1F89C0040F00400C1F89C000120F6E755
:103F80000146002291F89800022842D10868806911
:103F900040F001000B6898610CE0322A09D9983191
:103FA000486840F001004860032001F898090120AA
:103FB0007047521C0868806900F001000028ECD0AE
:103FC00000220868806920F010000B6898610CE0FE
:103FD000322A09D99831486840F00100486003202E
:103FE00001F898090120E3E7521C0868806900F095
:103FF00008000828ECD00868806940F002000B68CF
:1040000098610020C1F89400012081F898000020F8
:10401000CEE7D1F89C0040F00800C1F89C000120D8
:10402000C6E77047704770477047704770477047E2
:104030007047704770470000F8B502460B460021F4
:104040006D4DD2E001278F401E6806EA0704002C60
:1040500072D01E7906F00306012E04D01E7906F0F8
:104060000306022E13D190684F000326BE40B043D2
:104070004F00DE68BE4030439060506801268E409D
:10408000B0431E79C6F300168E40304350601E794F
:1040900006F00306032E09D0D0684F000326BE4069
:1040A000B0434F009E68BE403043D0601E7906F09A
:1040B0000306022E13D1CF0802F1200656F827007E
:1040C0004E07F70E0F26BE40B0434F07FF0E1E6986
:1040D000BE403043CF0802F1200646F827001068A2
:1040E0004F000326BE40B0431E7906F003064F0082
:1040F000BE40304310605E6806F44036002E73D038
:1041000000BF3E4E366846F002063C4F3E603E46DB
:10411000366806F00206009600BF00BF384E8F08D2
:1041200056F827008E07370F0F26BE40B043354E96
:10413000B24202D1002629E056E0334EB24201D10C
:10414000012623E0314EB24201D102261EE0304E5C
:10415000B24201D1032619E02E4EB24201D104260B
:1041600014E02D4EB24201D105260FE02B4EB24293
:1041700001D106260AE02A4EB24201D1072605E007
:10418000284EB24201D1092600E00A268F073F0FD0
:10419000BE4030431A4E8F0846F827004FF0B04615
:1041A0003068A0435E6806F4801606B120434FF0E5
:1041B000B04630607068A0435E6806F4001606B131
:1041C00020434FF0B04670606868A0435E6806F414
:1041D000003606B1204368602868A0435E6806F494
:1041E000803606B120432860491C1E68CE40002E50
:1041F0007FF428AFF8BD000080000058F444025856
:104200000804005800000258000402580008025830
:10421000000C0258001002580014025800180258EE
:10422000001C025800240258014800687047000032
:10423000080000240348006803490978084401493C
:1042400008607047080000241000002410B5032007
:1042500000F0E0F801F0D8FB10490968C1F3032130
:104260000F4A515C01F01F0120FA01F40B4800686D
:1042700000F00F001146085C00F01F0024FA00F067
:1042800008490860084804600F2000F00FF808B1E2
:10429000012010BD00F054F80020FAE7184402583D
:1042A00060B30008180000241400002470B58AB020
:1042B0000446102C0AD200222146192000F06CF886
:1042C000192000F055F81948046002E001200AB0F6
:1042D00070BD00BF1648006840F001001449086036
:1042E0000846006800F00100009000BF00BF01A96F
:1042F00002A801F009FB01F075FB45000D48B5FB74
:10430000F0F0461E0C480D49086040F2E7310B48BA
:10431000C160466000210161816002F03CF818B97B
:10432000064802F071F8D2E70120D0E70C00002423
:10433000F044025840420F0000000140E005002414
:1043400008B500BF0948006840F00200074908604E
:104350000846006800F00200009000BF00BF002285
:104360000F21901E00F018F808BD0000F444025818
:104370000146084600280DDB00BF00BF00F01F0308
:1043800001229A4043099B0003F1E023C3F8002176
:1043900000BF00BF00BF70472DE9F05F80460D46AB
:1043A000164605F0C5FA074639462A46334601F057
:1043B0000700C0F1070ABAF1040F02D94FF0040A4E
:1043C00001E0C0F1070AD14600F1040ABAF1070F73
:1043D00002D24FF0000A01E0A0F1030AD4464FF0E8
:1043E000010A0AFA09FAAAF1010A0AEA020A0AFA11
:1043F0000CFA4FF0010B0BFA0CFBABF1010B0BEAC3
:10440000030B4AEA0B042146404605F099FABDE841
:10441000F09F000000BF00F00702064B19684FF63E
:10442000FF031940044B0B4343EA0221014B19607F
:1044300000BF70470CED00E00000FA0570B50446BF
:1044400015480068C0F3800048B91348006800F0C0
:104450000700A04201D0012070BD0020FCE70E48FB
:10446000006820F0070020430B490860FFF7DCFEDE
:10447000054607E0FFF7D8FE401BB0F57A7F01D96B
:104480000120E9E7044808380068C0F340300028FC
:10449000F0D00020E0E700000C48025810B501F011
:1044A00069FA05490968C1F30211044A515C01F037
:1044B0001F01C84010BD00002044025860B300082E
:1044C00070B50146844D2D6805F00303824D2D68BB
:1044D000C5F30530804D2D1D2D68C5F300147E4DAC
:1044E00014352D68C5F3CC0515FB04F501EE105A03
:1044F000B8EE411AF0EE410A00286FD023B1012B2B
:104500004ED0022B6BD16BE0734D283D2D68C5F367
:1045100040153DB3704D283D2D68C5F3C1066F4D64
:1045200025FA06F201EE102AF8EE411A01EE100A01
:10453000B8EE411A81EE812A9FED691AC0EE811A08
:10454000654D10352D68C5F3080501EE105AB8EE1B
:10455000411A31EE811AF7EE001A31EE211A22EEDD
:10456000010A1CE001EE100AB8EE411ADFED5D1AF7
:1045700081EE812A9FED5A1AC0EE811A564D1035F0
:104580002D68C5F3080501EE105AB8EE411A31EE58
:10459000811AF7EE001A31EE211A22EE010A5BE0D1
:1045A00001EE100AB8EE411ADFED4F1A81EE812AB2
:1045B0009FED4B1AC0EE811A474D10352D68C5F39B
:1045C000080501EE105AB8EE411A31EE811AF7EEE5
:1045D000001A31EE211A22EE010A3DE077E01DE0DB
:1045E00001EE100AB8EE411A9FED402AC2EE011A00
:1045F0009FED3B1A80EE812A374D10352D68C5F3AB
:10460000080501EE105AB8EE411A32EE011AB7EE63
:10461000002A31EE021A21EE810A1DE001EE100A95
:10462000B8EE411ADFED301A81EE812A9FED2C1A87
:10463000C0EE811A284D10352D68C5F3080501EE2E
:10464000105AB8EE411A31EE811AF7EE001A31EE27
:10465000211A22EE010A00BF00BF1F4D10352D6840
:10466000C5F3462501EE105AB8EE411AF7EE001ACE
:1046700031EE211AC0EE011ABCEEE11A81ED001AEA
:10468000154D10352D68C5F3064501EE105AB8EEEC
:10469000411AF7EE001A31EE211AC0EE011ABCEEF3
:1046A000E11A81ED011A0C4D10352D68C5F3066530
:1046B00001EE105AB8EE411AF7EE001A31EE211A47
:1046C000C0EE011ABCEEE11A81ED021A03E00025EA
:1046D0000D604D608D6070BD284402580090D0037D
:1046E000000000460024744C0024744A001BB74BA1
:1046F00070B50146844D2D6805F00303824D2D6889
:10470000C5F30550804D2D1D2D68C5F300247E4D49
:104710001C352D68C5F3CC0515FB04F501EE105AC8
:10472000B8EE411AF0EE410A00286FD023B1012BF8
:104730004ED0022B6BD16BE0734D283D2D68C5F335
:1047400040153DB3704D283D2D68C5F3C1066F4D32
:1047500025FA06F201EE102AF8EE411A01EE100ACF
:10476000B8EE411A81EE812A9FED691AC0EE811AD6
:10477000654D18352D68C5F3080501EE105AB8EEE1
:10478000411A31EE811AF7EE001A31EE211A22EEAB
:10479000010A1CE001EE100AB8EE411ADFED5D1AC5
:1047A00081EE812A9FED5A1AC0EE811A564D1835B6
:1047B0002D68C5F3080501EE105AB8EE411A31EE26
:1047C000811AF7EE001A31EE211A22EE010A5BE09F
:1047D00001EE100AB8EE411ADFED4F1A81EE812A80
:1047E0009FED4B1AC0EE811A474D18352D68C5F361
:1047F000080501EE105AB8EE411A31EE811AF7EEB3
:10480000001A31EE211A22EE010A3DE077E01DE0A8
:1048100001EE100AB8EE411A9FED402AC2EE011ACD
:104820009FED3B1A80EE812A374D18352D68C5F370
:10483000080501EE105AB8EE411A32EE011AB7EE31
:10484000002A31EE021A21EE810A1DE001EE100A63
:10485000B8EE411ADFED301A81EE812A9FED2C1A55
:10486000C0EE811A284D18352D68C5F3080501EEF4
:10487000105AB8EE411A31EE811AF7EE001A31EEF5
:10488000211A22EE010A00BF00BF1F4D18352D6806
:10489000C5F3462501EE105AB8EE411AF7EE001A9C
:1048A00031EE211AC0EE011ABCEEE11A81ED001AB8
:1048B000154D18352D68C5F3064501EE105AB8EEB2
:1048C000411AF7EE001A31EE211AC0EE011ABCEEC1
:1048D000E11A81ED011A0C4D18352D68C5F30665F6
:1048E00001EE105AB8EE411AF7EE001A31EE211A15
:1048F000C0EE011ABCEEE11A81ED021A03E00025B8
:104900000D604D608D6070BD284402580090D0034A
:10491000000000460024744C0024744A001BB74B6E
:104920002DE9F04104460025A8464FF00062D4E985
:10493000001011400020134659404040014331D13E
:10494000606E48B1B0F5801F0DD0B0F5001F11D0DA
:10495000B0F5401F16D114E0FE48006840F4003066
:10496000FC49086010E0022104F1080003F03EF960
:10497000054609E0022104F1280003F0E9F90546A3
:1049800002E001E0012500BF00BF55B9F148243025
:10499000006820F44010616E0843EE49243108603D
:1049A00000E0A8464FF48072D4E9001011400020C6
:1049B00013465940404001432ED1A06D05281BD21B
:1049C000DFE800F0030A11181900E248006840F41B
:1049D0000030E049086011E0002104F1080003F014
:1049E00005F905460AE0002104F1280003F0B0F9BA
:1049F000054603E002E001E0012500BF00BF55B914
:104A0000D4482430006820F00700A16D0843D14944
:104A10002431086000E0A8464FF48062D4E9001019
:104A20001140002013465940404001433DD1D4F885
:104A3000A400B0F5C00F24D007DC68B1B0F5001FAA
:104A400011D0B0F5800F1FD114E0B0F5000F19D0D0
:104A5000B0F5200F18D116E0BE48006840F40030D1
:104A6000BC49086012E0002104F1080003F0BEF820
:104A700005460BE0002104F1280003F069F9054622
:104A800004E003E002E001E0012500BF00BF5DB9E2
:104A9000B0482C30006820F46000D4F8A41008431B
:104AA000AC492C31086000E0A8464FF40062D4E91C
:104AB00000011040002113465840494008433DD1B1
:104AC000D4F8A800B0F1407F24D007DC68B1B0F181
:104AD000807F11D0B0F1007F1FD114E0B0F1806F62
:104AE00019D0B0F1A06F18D116E09A48006840F4D0
:104AF00000309849086012E0002104F1080003F03A
:104B000075F805460BE0002104F1280003F020F9B8
:104B1000054604E003E002E001E0012500BF00BF1C
:104B20005DB98C482C30006820F0E060D4F8A81003
:104B3000084388492C31086000E0A8464FF0007314
:104B4000D4E900101940002059404040014328D1C9
:104B5000E06CA8B1102804D0202809D0302810D14A
:104B60000DE07C48006840F400307A4908600AE0B3
:104B7000022104F1080003F039F8054603E002E0E1
:104B800001E0012500BF00BF55B972482030006820
:104B900020F03000E16C08436E492031086000E0ED
:104BA000A8464FF48053D4E9001019400020594022
:104BB0004040014337D1E06DB0F5005F1AD004DC0E
:104BC00050B1B0F5805F1ED10DE0B0F5405F18D058
:104BD000B0F5804F17D115E05E48006840F4003012
:104BE0005C49086011E0002104F1080002F0FEFFBA
:104BF00005460AE0002104F1280003F0A9F8054663
:104C000003E002E001E0012500BF00BF55B95148B3
:104C10002430006820F4E040E16D08434D49243120
:104C2000086000E0A8464FF40053D4E90010194092
:104C3000002059404040014335D1206EB0F5403F3F
:104C40001ED007DC68B1B0F5803F0BD0B0F5003F57
:104C500019D10EE0B0F5802F13D0B0F5A02F12D1EE
:104C600010E012E0012104F1080002F0BFFF054648
:104C70000BE0012104F1280003F06AF8054604E086
:104C800003E002E001E0012500BF00BF55B9314853
:104C90002430006820F4E020216E08432D4924319F
:104CA000086000E0A8464FF48042D4E900011040BB
:104CB0000021134658404940084337D1D4F8AC008E
:104CC000B0F1405F1ED007DC68B1B0F1805F0BD05F
:104CD000B0F1005F19D10EE0B0F1804F13D0B0F108
:104CE000A04F12D110E012E0012104F1080002F0FF
:104CF0007DFF05460BE0012104F1280003F028F8B0
:104D0000054604E003E002E001E0012500BF00BF2A
:104D10005DB910482C30006820F0E040D4F8AC10A9
:104D200008430C492C31086000E0A8464FF40043CA
:104D3000D4E90001184000215840494008432AD1D5
:104D4000E06EB8B1B0F1805F06D0B0F1005F12D173
:104D500009E000002C440258F948006840F4003093
:104D6000F749086009E0012104F1080002F03EFF64
:104D7000054602E001E0012500BF00BF55B9F0483B
:104D80002430006820F04050E16E0843EC492431A3
:104D9000086000E0A8464FF08073D4E90010194085
:104DA000002059404040014328D1A06CA8B10128FF
:104DB00004D0022809D0032810D10DE0E048006893
:104DC00040F40030DE4908600AE0022104F10800E6
:104DD00002F00CFF054603E002E001E0012500BF00
:104DE00000BF55B9D6482030006820F00300A16C00
:104DF0000843D3492031086000E0A8464FF48003FF
:104E0000D4E90010194000205940404001437DD1B1
:104E1000CC48006840F48070CA490860FFF704FA83
:104E2000064606E0FFF700FA801B642801D9032537
:104E300005E0C448006800F480700028F2D000BF8C
:104E400085BBBF484430006800F44070B4F8B0102F
:104E500001F44071884213D0B9484430006820F40E
:104E60004077B7484430006840F48030B44944315A
:104E700008600846006820F4803008600846076033
:104E8000D4F8B000B0F5807F15D1FFF7CDF9064614
:104E900009E0FFF7C9F9801B41F28831884202D945
:104EA000032507E038E0A64844300068C0F340001E
:104EB0000028EED000BF55BB00BFB4F8B00000F42E
:104EC0004070B0F5407F0ED19D481C38006820F43A
:104ED0007C519D4AD4F8B000104041EA1010984926
:104EE0001C39086007E096481C38006820F47C50A4
:104EF00093491C390860924844300068B4F8B010F7
:104F0000C1F30B0108438E49443101E005E001E0A3
:104F1000086002E0A84600E0A8460122D4E90001AA
:104F200010400021134658404940084330D1A06F3B
:104F300018281AD005DC48B1082808D0102817D145
:104F40000CE0202812D0282812D110E012E0012114
:104F500004F1080002F04AFE05460BE0012104F1CD
:104F6000280002F0F5FE054604E003E002E001E05F
:104F7000012500BF00BF55B971482830006820F0F6
:104F80003800A16F08436E492831086000E0A84648
:104F90000223D4E900101940002059404040014349
:104FA00029D1606F062816D2DFE800F003040B1247
:104FB000131412E0012104F1080002F017FE054667
:104FC0000BE0012104F1280002F0C2FE054604E0D6
:104FD00003E002E001E0012500BF00BF55B95848D9
:104FE0002830006820F00700616F084354492831D9
:104FF000086000E0A8460422D4E900101140002017
:1050000013465940404001432BD1D4F89000062864
:1050100016D2DFE800F003040B12131412E0012192
:1050200004F1080002F0E2FD05460BE0012104F165
:10503000280002F08DFE054604E003E002E001E0F6
:10504000012500BF00BF5DB93D482C30006820F04D
:105050000700D4F89010084339492C31086000E06B
:10506000A8462023D4E900011840002158404940B7
:10507000084337D1D4F88C00B0F1405F1ED007DC74
:1050800068B1B0F1805F0BD0B0F1005F19D10EE0D4
:10509000B0F1804F13D0B0F1A04F12D110E012E068
:1050A000002104F1080002F0A1FD05460BE00221F9
:1050B00004F1280002F04CFE054604E003E002E0A3
:1050C00001E0012500BF00BF5DB91D482830006820
:1050D00020F0E040D4F88C100843194928310860CA
:1050E00000E0A8464023D4E90010194000205940B0
:1050F000404001433CD1D4F89800B0F5406F25D032
:1051000007DC68B1B0F5806F0BD0B0F5006F20D12F
:105110000EE0B0F5805F1AD0B0F5A05F19D117E0AE
:1051200019E0002104F1080002F060FD054612E0DC
:10513000022104F1280002F00BFE05460BE00000FE
:105140002C44025800480258FFFCFF0F03E002E025
:1051500001E0012500BF00BF4DB9FE48006820F402
:10516000E050D4F898100843FA49086000E0A846D7
:105170008023D4E9001019400020594040400143E9
:1051800035D1D4F89C00B0F5C04F1ED007DC68B113
:10519000B0F5005F0BD0B0F5804F19D10EE0B0F53F
:1051A000004F13D0B0F5204F12D110E012E00021D3
:1051B00004F1080002F01AFD05460BE0022104F19B
:1051C000280002F0C5FD054604E003E002E001E02E
:1051D000012500BF00BF4DB9DE48006820F46040E3
:1051E000D4F89C100843DB49086000E0A846082377
:1051F000D4E900011840002158404940084317D124
:10520000D4F88000B0F5805F07D1022104F12800B6
:1052100002F09EFD08B14FF00108CE48001F006863
:1052200020F44050D4F880100843CA49091F086090
:105230001023D4E900011840002158404940084398
:1052400015D1D4F89400B0F5807F07D1022104F184
:10525000280002F07DFD08B14FF00108BD4800684C
:1052600020F44070D4F894100843BA4908604FF411
:105270000023D4E900011840002158404940084368
:1052800027D1D4F8A00030B1B0F5803F0AD0B0F5F6
:10529000003F0FD10DE0002104F1080002F0A6FC50
:1052A000054609E0022104F1280002F051FD0546FF
:1052B00002E001E0012500BF00BF4DB9A54800682C
:1052C00020F44030D4F8A0100843A249086000E060
:1052D000A8464FF48023D4E900011840002158402B
:1052E000494008432DD1D4F88400B0F5801F06D082
:1052F000B0F5001F0CD0B0F5401F11D10FE095485C
:105300002C38006840F4003092492C39086009E0DC
:10531000012104F1280002F01BFD054602E001E036
:10532000012500BF00BF5DB98A48001F006820F456
:105330004010D4F8841008438649091F086000E033
:10534000A8464FF48032D4E90001104000211346F2
:1053500058404940084325D1206D18B1B0F5803F31
:1053600010D108E07B482C38006840F400307949BF
:105370002C39086008E0022104F1080002F036FC34
:10538000054601E0012500BF00BF55B971480C3842
:10539000006820F48030216D08436E490C390860A4
:1053A00000E0A8464FF00053D4E900101940002057
:1053B00059404040014307D1022104F1280002F086
:1053C000C7FC08B14FF001084FF40032D4E90001E6
:1053D00010400021134658404940084327D1E06F50
:1053E000A0B1B0F5807F06D0B0F5007F0CD0B0F54D
:1053F000407F0CD109E057482C38006840F4003059
:1054000054492C39086004E003E002E001E0012582
:1054100000BF00BF55B94F48001F006820F440701E
:10542000E16F08434B49091F086000E0A8464FF4AC
:105430008012D4E90010114000201346594040402A
:10544000014309D143480838006820F00040216F2B
:1054500008434049083908604FF40013D4E90001BB
:105460001840002158404940084309D139480838BC
:10547000006820F08070A16E084336490839086042
:105480004FF08043D4E900101940002059404040BB
:10549000014311D100BF2F484838006820F4004074
:1054A0002C494839086008460068D4F8B41008430D
:1054B00028494839086000BF4FF00042D4E9000194
:1054C00010400021134658404940084309D1214863
:1054D0000C38006820F04050616D08431D490C39BC
:1054E00008604FF40002D4E9001011400020134678
:1054F0005940404001430AD11648001F006820F47B
:105500004000D4F8881008431249091F086001229E
:1055100000216068104049405040014306D104F129
:10552000080002F063FB054605B1A84602220021EF
:105530006068104049405040014307D1012104F107
:10554000080002F053FB054605B1A84604230020DD
:10555000616801E05844025819400422404051401B
:10556000084307D1022104F1080002F03FFB054681
:1055700005B1A84608230020616819400822404070
:105580005140084307D1002104F1280002F0E0FB5C
:10559000054605B1A8461023002061681940102275
:1055A00040405140084307D1012104F1280002F096
:1055B000CFFB054605B1A8462022002160681040B7
:1055C00049405040014307D1022104F1280002F074
:1055D000BFFB054605B1A846B8F1000F02D1002077
:1055E000BDE8F0810120FBE72DE9F04104460D46BE
:1055F00014B90120BDE8F081BD48006800F00F003B
:10560000A8420ED2BA48006820F00F002843B849DB
:1056100008600846006800F00F00A84201D0012091
:10562000E8E7207800F0040004280ED1B149206991
:10563000096801F07001884207D9AE48006820F07F
:10564000700021690843AB490860207800F0080029
:10565000082811D1A749091D6069096801F0700186
:10566000884209D9A348001D006820F070006169D4
:105670000843A049091D0860207800F01000102898
:1056800011D19C49091DA069096801F4E0618842B3
:1056900009D99848001D006820F4E060A16908431A
:1056A0009449091D0860207800F02000202811D1BD
:1056B00090490831E069096801F07001884209D910
:1056C0008C480830006820F07000E169084389497F
:1056D00008310860207800F0020002280ED18549C8
:1056E000E068096801F00F01884207D98148006825
:1056F00020F00F00E16808437E490860207800F040
:105700000100002850D07B48006820F47060A16838
:105710000843784908606068022807D1754818383E
:105720000068C0F34040F8B9012063E760680328CF
:1057300007D1704818380068C0F34060A0B9012054
:1057400058E76068012807D16A4818380068C0F334
:10575000002048B901204DE7664818380068C0F3BA
:10576000800008B9012045E762480838006820F049
:105770000700616808435F4908390860FEF754FD77
:10578000064608E0FEF750FD801B41F28831884252
:1057900001D903202EE757480838006800F0380088
:1057A0006168B0EBC10FEDD1207800F00200022853
:1057B0000ED15049E068096801F00F01884207D214
:1057C0004C48006820F00F00E16808434949086030
:1057D0004748006800F00F00A8420ED9444800680E
:1057E00020F00F002843424908600846006800F096
:1057F0000F00A84201D00120FCE6207800F0040050
:1058000004280ED13B492069096801F070018842E3
:1058100007D23848006820F07000216908433549F4
:105820000860207800F00800082811D13149091DCE
:105830006069096801F07001884209D22D48001D95
:10584000006820F07000616908432A49091D08605A
:10585000207800F01000102811D12649091DA069F8
:10586000096801F4E061884209D22248001D0068FD
:1058700020F4E060A16908431E49091D08602078F2
:1058800000F02000202811D11A490831E069096888
:1058900001F07001884209D216480830006820F0F3
:1058A0007000E169084313490831086000F0ACF862
:1058B00010490968C1F303210F4A515C01F01F012F
:1058C00020FA01F70B48006800F00F001146085C51
:1058D00000F01F0027FA00F0084908600848076038
:1058E00008480068FEF7E2FC8046404682E6000079
:1058F000002000521844025860B300081800002429
:10590000140000240C0000243F220260174A126891
:1059100002F007024260154A0832126802F470620F
:105920008260124A0832126802F00F02C2600F4A07
:105930000832126802F0700202610C4A0C321268DE
:1059400002F070024261094A0C32126802F4E0620D
:105950008261064A1032126802F07002C261044A83
:10596000126802F00F020A607047000010440258EB
:105970000020005210B500F047F80D490968C1F346
:1059800003210C4A515C01F01F0120FA01F4084880
:10599000006800F00F001146085C00F01F0024FAB8
:1059A00000F005490860054804600846006810BD1D
:1059B0001844025860B300081800002414000024A2
:1059C00000B5FFF7D7FF05490968C1F30211044A82
:1059D000515C01F01F01C84000BD00001C4402588A
:1059E00060B3000800B5FFF7C5FF05490968C1F3BA
:1059F0000221044A515C01F01F01C84000BD0000B3
:105A00001C44025860B30008F0B5824E366806F0B8
:105A1000380636B1082E15D0102E15D0182E7DD18F
:105A200014E07C4E103E3668C6F3401646B1794EFF
:105A3000103E3668C6F3C107774E26FA07F000E03D
:105A40007548E5E07548E3E07548E1E0714E1836C9
:105A5000366806F003046F4E18363668C6F3051133
:105A60006C4E1C36366806F001056A4E24363668E0
:105A7000C6F3CC0616FB05F601EE106AB8EE410A35
:105A8000002971D024B1012C50D0022C6DD16DE0D1
:105A9000604E103E3668C6F340163EB35D4E103E73
:105AA0003668C6F3C1075C4E26FA07F301EE103ADA
:105AB000F8EE411A01EE101AB8EE411A81EE812A71
:105AC0009FED581AC0EE011A524E20363668C6F3C2
:105AD000080601EE106AB8EE411A31EE811AF7EEAF
